{
  "_format": "hh-sol-artifact-1",
  "contractName": "SimpleFactory",
  "sourceName": "contracts/SimpleFactory.sol",
  "abi": [
    {
      "inputs": [
        {
          "internalType": "address",
          "name": "marketplace_",
          "type": "address"
        }
      ],
      "stateMutability": "nonpayable",
      "type": "constructor"
    },
    {
      "anonymous": false,
      "inputs": [
        {
          "indexed": true,
          "internalType": "address",
          "name": "creator",
          "type": "address"
        },
        {
          "indexed": false,
          "internalType": "string",
          "name": "name",
          "type": "string"
        }
      ],
      "name": "AgentCreated",
      "type": "event"
    },
    {
      "inputs": [
        {
          "internalType": "uint256",
          "name": "",
          "type": "uint256"
        }
      ],
      "name": "allAgents",
      "outputs": [
        {
          "internalType": "address",
          "name": "",
          "type": "address"
        }
      ],
      "stateMutability": "view",
      "type": "function"
    },
    {
      "inputs": [
        {
          "internalType": "string",
          "name": "agentName_",
          "type": "string"
        }
      ],
      "name": "createAgent",
      "outputs": [
        {
          "internalType": "uint256",
          "name": "",
          "type": "uint256"
        }
      ],
      "stateMutability": "payable",
      "type": "function"
    },
    {
      "inputs": [],
      "name": "creationFee",
      "outputs": [
        {
          "internalType": "uint256",
          "name": "",
          "type": "uint256"
        }
      ],
      "stateMutability": "view",
      "type": "function"
    },
    {
      "inputs": [
        {
          "internalType": "uint256",
          "name": "index",
          "type": "uint256"
        }
      ],
      "name": "getAgentAt",
      "outputs": [
        {
          "internalType": "address",
          "name": "",
          "type": "address"
        }
      ],
      "stateMutability": "view",
      "type": "function"
    },
    {
      "inputs": [],
      "name": "getTotalAgents",
      "outputs": [
        {
          "internalType": "uint256",
          "name": "",
          "type": "uint256"
        }
      ],
      "stateMutability": "view",
      "type": "function"
    },
    {
      "inputs": [],
      "name": "marketplace",
      "outputs": [
        {
          "internalType": "address",
          "name": "",
          "type": "address"
        }
      ],
      "stateMutability": "view",
      "type": "function"
    },
    {
      "inputs": [],
      "name": "owner",
      "outputs": [
        {
          "internalType": "address",
          "name": "",
          "type": "address"
        }
      ],
      "stateMutability": "view",
      "type": "function"
    },
    {
      "inputs": [
        {
          "internalType": "uint256",
          "name": "newFee",
          "type": "uint256"
        }
      ],
      "name": "updateCreationFee",
      "outputs": [],
      "stateMutability": "nonpayable",
      "type": "function"
    }
  ],
  "bytecode": "0x6080604052662386f26fc1000060025534801561001b57600080fd5b506040516105d73803806105d783398101604081905261003a91610068565b600080546001600160a01b039092166001600160a01b03199283161790556001805490911633179055610098565b60006020828403121561007a57600080fd5b81516001600160a01b038116811461009157600080fd5b9392505050565b610530806100a76000396000f3fe60806040526004361061007b5760003560e01c8063dce0b4e41161004e578063dce0b4e41461011e578063e0bb12f714610134578063e405148414610154578063e468619d1461016757600080fd5b80633731a16f146100805780636fa23795146100a45780638da5cb5b146100c6578063abc8c7af146100fe575b600080fd5b34801561008c57600080fd5b506003545b6040519081526020015b60405180910390f35b3480156100b057600080fd5b506100c46100bf366004610394565b610187565b005b3480156100d257600080fd5b506001546100e6906001600160a01b031681565b6040516001600160a01b03909116815260200161009b565b34801561010a57600080fd5b506000546100e6906001600160a01b031681565b34801561012a57600080fd5b5061009160025481565b34801561014057600080fd5b506100e661014f366004610394565b6101d8565b6100916101623660046103c3565b610202565b34801561017357600080fd5b506100e6610182366004610394565b61031c565b6001546001600160a01b031633146101d35760405162461bcd60e51b815260206004820152600a60248201526927a7262cafa7aba722a960b11b60448201526064015b60405180910390fd5b600255565b600381815481106101e857600080fd5b6000918252602090912001546001600160a01b0316905081565b60006002543410156102495760405162461bcd60e51b815260206004820152601060248201526f494e53554646494349454e545f46454560801b60448201526064016101ca565b600082511161028a5760405162461bcd60e51b815260206004820152600d60248201526c1390535157d491545552549151609a1b60448201526064016101ca565b600380546001810182556000919091527fc2575a0e9e593c00f959f8c92f12db2869c3395a3b0502d05e2516446f71f85b0180546001600160a01b031916339081179091556040517f04113ef76b0559eb2a45c99a2b79e8e8d6a240f6289d2f5f020aefc61f0b5bcd906102ff908590610474565b60405180910390a2600354610316906001906104c3565b92915050565b60035460009082106103665760405162461bcd60e51b8152602060048201526013602482015272494e4445585f4f55545f4f465f424f554e445360681b60448201526064016101ca565b60038281548110610379576103796104e4565b6000918252602090912001546001600160a01b031692915050565b6000602082840312156103a657600080fd5b5035919050565b634e487b7160e01b600052604160045260246000fd5b6000602082840312156103d557600080fd5b813567ffffffffffffffff808211156103ed57600080fd5b818401915084601f83011261040157600080fd5b813581811115610413576104136103ad565b604051601f8201601f19908116603f0116810190838211818310171561043b5761043b6103ad565b8160405282815287602084870101111561045457600080fd5b826020860160208301376000928101602001929092525095945050505050565b60006020808352835180602085015260005b818110156104a257858101830151858201604001528201610486565b506000604082860101526040601f19601f8301168501019250505092915050565b8181038181111561031657634e487b7160e01b600052601160045260246000fd5b634e487b7160e01b600052603260045260246000fdfea2646970667358221220fa69bfdcff8f974a10089089e016d3620c2a7d8ca7c53c26ef1c393ebec02ea264736f6c63430008180033",
  "linkReferences": {},
  "deployedLinkReferences": {}
}