{
  "_format": "hh-sol-artifact-1",
  "contractName": "EnhancedINFT",
  "sourceName": "contracts/EnhancedINFT.sol",
  "abi": [
    {
      "inputs": [
        {
          "internalType": "address",
          "name": "_feeRecipient",
          "type": "address"
        }
      ],
      "stateMutability": "nonpayable",
      "type": "constructor"
    },
    {
      "inputs": [
        {
          "internalType": "address",
          "name": "sender",
          "type": "address"
        },
        {
          "internalType": "uint256",
          "name": "tokenId",
          "type": "uint256"
        },
        {
          "internalType": "address",
          "name": "owner",
          "type": "address"
        }
      ],
      "name": "ERC721IncorrectOwner",
      "type": "error"
    },
    {
      "inputs": [
        {
          "internalType": "address",
          "name": "operator",
          "type": "address"
        },
        {
          "internalType": "uint256",
          "name": "tokenId",
          "type": "uint256"
        }
      ],
      "name": "ERC721InsufficientApproval",
      "type": "error"
    },
    {
      "inputs": [
        {
          "internalType": "address",
          "name": "approver",
          "type": "address"
        }
      ],
      "name": "ERC721InvalidApprover",
      "type": "error"
    },
    {
      "inputs": [
        {
          "internalType": "address",
          "name": "operator",
          "type": "address"
        }
      ],
      "name": "ERC721InvalidOperator",
      "type": "error"
    },
    {
      "inputs": [
        {
          "internalType": "address",
          "name": "owner",
          "type": "address"
        }
      ],
      "name": "ERC721InvalidOwner",
      "type": "error"
    },
    {
      "inputs": [
        {
          "internalType": "address",
          "name": "receiver",
          "type": "address"
        }
      ],
      "name": "ERC721InvalidReceiver",
      "type": "error"
    },
    {
      "inputs": [
        {
          "internalType": "address",
          "name": "sender",
          "type": "address"
        }
      ],
      "name": "ERC721InvalidSender",
      "type": "error"
    },
    {
      "inputs": [
        {
          "internalType": "uint256",
          "name": "tokenId",
          "type": "uint256"
        }
      ],
      "name": "ERC721NonexistentToken",
      "type": "error"
    },
    {
      "inputs": [
        {
          "internalType": "address",
          "name": "owner",
          "type": "address"
        }
      ],
      "name": "OwnableInvalidOwner",
      "type": "error"
    },
    {
      "inputs": [
        {
          "internalType": "address",
          "name": "account",
          "type": "address"
        }
      ],
      "name": "OwnableUnauthorizedAccount",
      "type": "error"
    },
    {
      "anonymous": false,
      "inputs": [
        {
          "indexed": true,
          "internalType": "uint256",
          "name": "tokenId",
          "type": "uint256"
        },
        {
          "indexed": true,
          "internalType": "address",
          "name": "creator",
          "type": "address"
        },
        {
          "indexed": false,
          "internalType": "string",
          "name": "name",
          "type": "string"
        },
        {
          "indexed": false,
          "internalType": "string",
          "name": "tokenURI",
          "type": "string"
        },
        {
          "indexed": false,
          "internalType": "string",
          "name": "storageHash",
          "type": "string"
        }
      ],
      "name": "AgentCreated",
      "type": "event"
    },
    {
      "anonymous": false,
      "inputs": [
        {
          "indexed": true,
          "internalType": "uint256",
          "name": "tokenId",
          "type": "uint256"
        },
        {
          "indexed": false,
          "internalType": "bool",
          "name": "isActive",
          "type": "bool"
        }
      ],
      "name": "AgentStatusChanged",
      "type": "event"
    },
    {
      "anonymous": false,
      "inputs": [
        {
          "indexed": true,
          "internalType": "uint256",
          "name": "tokenId",
          "type": "uint256"
        },
        {
          "indexed": true,
          "internalType": "address",
          "name": "user",
          "type": "address"
        },
        {
          "indexed": false,
          "internalType": "uint256",
          "name": "usageCount",
          "type": "uint256"
        }
      ],
      "name": "AgentUsed",
      "type": "event"
    },
    {
      "anonymous": false,
      "inputs": [
        {
          "indexed": true,
          "internalType": "address",
          "name": "owner",
          "type": "address"
        },
        {
          "indexed": true,
          "internalType": "address",
          "name": "approved",
          "type": "address"
        },
        {
          "indexed": true,
          "internalType": "uint256",
          "name": "tokenId",
          "type": "uint256"
        }
      ],
      "name": "Approval",
      "type": "event"
    },
    {
      "anonymous": false,
      "inputs": [
        {
          "indexed": true,
          "internalType": "address",
          "name": "owner",
          "type": "address"
        },
        {
          "indexed": true,
          "internalType": "address",
          "name": "operator",
          "type": "address"
        },
        {
          "indexed": false,
          "internalType": "bool",
          "name": "approved",
          "type": "bool"
        }
      ],
      "name": "ApprovalForAll",
      "type": "event"
    },
    {
      "anonymous": false,
      "inputs": [
        {
          "indexed": false,
          "internalType": "uint256",
          "name": "_fromTokenId",
          "type": "uint256"
        },
        {
          "indexed": false,
          "internalType": "uint256",
          "name": "_toTokenId",
          "type": "uint256"
        }
      ],
      "name": "BatchMetadataUpdate",
      "type": "event"
    },
    {
      "anonymous": false,
      "inputs": [
        {
          "indexed": false,
          "internalType": "uint256",
          "name": "newFee",
          "type": "uint256"
        }
      ],
      "name": "CreationFeeUpdated",
      "type": "event"
    },
    {
      "anonymous": false,
      "inputs": [
        {
          "indexed": false,
          "internalType": "address",
          "name": "newRecipient",
          "type": "address"
        }
      ],
      "name": "FeeRecipientUpdated",
      "type": "event"
    },
    {
      "anonymous": false,
      "inputs": [
        {
          "indexed": false,
          "internalType": "uint256",
          "name": "_tokenId",
          "type": "uint256"
        }
      ],
      "name": "MetadataUpdate",
      "type": "event"
    },
    {
      "anonymous": false,
      "inputs": [
        {
          "indexed": true,
          "internalType": "address",
          "name": "previousOwner",
          "type": "address"
        },
        {
          "indexed": true,
          "internalType": "address",
          "name": "newOwner",
          "type": "address"
        }
      ],
      "name": "OwnershipTransferred",
      "type": "event"
    },
    {
      "anonymous": false,
      "inputs": [
        {
          "indexed": true,
          "internalType": "address",
          "name": "from",
          "type": "address"
        },
        {
          "indexed": true,
          "internalType": "address",
          "name": "to",
          "type": "address"
        },
        {
          "indexed": true,
          "internalType": "uint256",
          "name": "tokenId",
          "type": "uint256"
        }
      ],
      "name": "Transfer",
      "type": "event"
    },
    {
      "inputs": [
        {
          "internalType": "uint256",
          "name": "",
          "type": "uint256"
        }
      ],
      "name": "agentData",
      "outputs": [
        {
          "internalType": "string",
          "name": "name",
          "type": "string"
        },
        {
          "internalType": "string",
          "name": "description",
          "type": "string"
        },
        {
          "internalType": "string",
          "name": "category",
          "type": "string"
        },
        {
          "internalType": "address",
          "name": "creator",
          "type": "address"
        },
        {
          "internalType": "uint256",
          "name": "createdAt",
          "type": "uint256"
        },
        {
          "internalType": "uint256",
          "name": "usageCount",
          "type": "uint256"
        },
        {
          "internalType": "bool",
          "name": "isActive",
          "type": "bool"
        },
        {
          "internalType": "string",
          "name": "computeModel",
          "type": "string"
        },
        {
          "internalType": "string",
          "name": "storageHash",
          "type": "string"
        }
      ],
      "stateMutability": "view",
      "type": "function"
    },
    {
      "inputs": [
        {
          "internalType": "uint256",
          "name": "",
          "type": "uint256"
        },
        {
          "internalType": "address",
          "name": "",
          "type": "address"
        }
      ],
      "name": "agentUsage",
      "outputs": [
        {
          "internalType": "uint256",
          "name": "",
          "type": "uint256"
        }
      ],
      "stateMutability": "view",
      "type": "function"
    },
    {
      "inputs": [
        {
          "internalType": "address",
          "name": "to",
          "type": "address"
        },
        {
          "internalType": "uint256",
          "name": "tokenId",
          "type": "uint256"
        }
      ],
      "name": "approve",
      "outputs": [],
      "stateMutability": "nonpayable",
      "type": "function"
    },
    {
      "inputs": [
        {
          "internalType": "address",
          "name": "owner",
          "type": "address"
        }
      ],
      "name": "balanceOf",
      "outputs": [
        {
          "internalType": "uint256",
          "name": "",
          "type": "uint256"
        }
      ],
      "stateMutability": "view",
      "type": "function"
    },
    {
      "inputs": [],
      "name": "creationFee",
      "outputs": [
        {
          "internalType": "uint256",
          "name": "",
          "type": "uint256"
        }
      ],
      "stateMutability": "view",
      "type": "function"
    },
    {
      "inputs": [
        {
          "internalType": "address",
          "name": "",
          "type": "address"
        },
        {
          "internalType": "uint256",
          "name": "",
          "type": "uint256"
        }
      ],
      "name": "creatorAgents",
      "outputs": [
        {
          "internalType": "uint256",
          "name": "",
          "type": "uint256"
        }
      ],
      "stateMutability": "view",
      "type": "function"
    },
    {
      "inputs": [],
      "name": "emergencyWithdraw",
      "outputs": [],
      "stateMutability": "nonpayable",
      "type": "function"
    },
    {
      "inputs": [],
      "name": "feeRecipient",
      "outputs": [
        {
          "internalType": "address",
          "name": "",
          "type": "address"
        }
      ],
      "stateMutability": "view",
      "type": "function"
    },
    {
      "inputs": [
        {
          "internalType": "uint256",
          "name": "tokenId",
          "type": "uint256"
        }
      ],
      "name": "getAgentCapabilities",
      "outputs": [
        {
          "internalType": "string[]",
          "name": "",
          "type": "string[]"
        }
      ],
      "stateMutability": "view",
      "type": "function"
    },
    {
      "inputs": [
        {
          "internalType": "uint256",
          "name": "tokenId",
          "type": "uint256"
        }
      ],
      "name": "getApproved",
      "outputs": [
        {
          "internalType": "address",
          "name": "",
          "type": "address"
        }
      ],
      "stateMutability": "view",
      "type": "function"
    },
    {
      "inputs": [
        {
          "internalType": "address",
          "name": "creator",
          "type": "address"
        }
      ],
      "name": "getCreatorAgents",
      "outputs": [
        {
          "internalType": "uint256[]",
          "name": "",
          "type": "uint256[]"
        }
      ],
      "stateMutability": "view",
      "type": "function"
    },
    {
      "inputs": [
        {
          "internalType": "uint256",
          "name": "tokenId",
          "type": "uint256"
        },
        {
          "internalType": "address",
          "name": "user",
          "type": "address"
        }
      ],
      "name": "getUsageStats",
      "outputs": [
        {
          "internalType": "uint256",
          "name": "",
          "type": "uint256"
        }
      ],
      "stateMutability": "view",
      "type": "function"
    },
    {
      "inputs": [
        {
          "internalType": "address",
          "name": "owner",
          "type": "address"
        },
        {
          "internalType": "address",
          "name": "operator",
          "type": "address"
        }
      ],
      "name": "isApprovedForAll",
      "outputs": [
        {
          "internalType": "bool",
          "name": "",
          "type": "bool"
        }
      ],
      "stateMutability": "view",
      "type": "function"
    },
    {
      "inputs": [
        {
          "internalType": "string",
          "name": "tokenURI_",
          "type": "string"
        }
      ],
      "name": "mint",
      "outputs": [
        {
          "internalType": "uint256",
          "name": "tokenId",
          "type": "uint256"
        }
      ],
      "stateMutability": "payable",
      "type": "function"
    },
    {
      "inputs": [
        {
          "internalType": "string",
          "name": "tokenURI_",
          "type": "string"
        },
        {
          "internalType": "string[5]",
          "name": "agentParams",
          "type": "string[5]"
        },
        {
          "internalType": "string[]",
          "name": "capabilities_",
          "type": "string[]"
        }
      ],
      "name": "mintAgent",
      "outputs": [
        {
          "internalType": "uint256",
          "name": "tokenId",
          "type": "uint256"
        }
      ],
      "stateMutability": "payable",
      "type": "function"
    },
    {
      "inputs": [],
      "name": "name",
      "outputs": [
        {
          "internalType": "string",
          "name": "",
          "type": "string"
        }
      ],
      "stateMutability": "view",
      "type": "function"
    },
    {
      "inputs": [],
      "name": "owner",
      "outputs": [
        {
          "internalType": "address",
          "name": "",
          "type": "address"
        }
      ],
      "stateMutability": "view",
      "type": "function"
    },
    {
      "inputs": [
        {
          "internalType": "uint256",
          "name": "tokenId",
          "type": "uint256"
        }
      ],
      "name": "ownerOf",
      "outputs": [
        {
          "internalType": "address",
          "name": "",
          "type": "address"
        }
      ],
      "stateMutability": "view",
      "type": "function"
    },
    {
      "inputs": [
        {
          "internalType": "uint256",
          "name": "tokenId",
          "type": "uint256"
        }
      ],
      "name": "recordUsage",
      "outputs": [],
      "stateMutability": "nonpayable",
      "type": "function"
    },
    {
      "inputs": [],
      "name": "renounceOwnership",
      "outputs": [],
      "stateMutability": "nonpayable",
      "type": "function"
    },
    {
      "inputs": [
        {
          "internalType": "address",
          "name": "from",
          "type": "address"
        },
        {
          "internalType": "address",
          "name": "to",
          "type": "address"
        },
        {
          "internalType": "uint256",
          "name": "tokenId",
          "type": "uint256"
        }
      ],
      "name": "safeTransferFrom",
      "outputs": [],
      "stateMutability": "nonpayable",
      "type": "function"
    },
    {
      "inputs": [
        {
          "internalType": "address",
          "name": "from",
          "type": "address"
        },
        {
          "internalType": "address",
          "name": "to",
          "type": "address"
        },
        {
          "internalType": "uint256",
          "name": "tokenId",
          "type": "uint256"
        },
        {
          "internalType": "bytes",
          "name": "data",
          "type": "bytes"
        }
      ],
      "name": "safeTransferFrom",
      "outputs": [],
      "stateMutability": "nonpayable",
      "type": "function"
    },
    {
      "inputs": [
        {
          "internalType": "uint256",
          "name": "tokenId",
          "type": "uint256"
        },
        {
          "internalType": "bool",
          "name": "isActive",
          "type": "bool"
        }
      ],
      "name": "setAgentStatus",
      "outputs": [],
      "stateMutability": "nonpayable",
      "type": "function"
    },
    {
      "inputs": [
        {
          "internalType": "address",
          "name": "operator",
          "type": "address"
        },
        {
          "internalType": "bool",
          "name": "approved",
          "type": "bool"
        }
      ],
      "name": "setApprovalForAll",
      "outputs": [],
      "stateMutability": "nonpayable",
      "type": "function"
    },
    {
      "inputs": [
        {
          "internalType": "bytes4",
          "name": "interfaceId",
          "type": "bytes4"
        }
      ],
      "name": "supportsInterface",
      "outputs": [
        {
          "internalType": "bool",
          "name": "",
          "type": "bool"
        }
      ],
      "stateMutability": "view",
      "type": "function"
    },
    {
      "inputs": [],
      "name": "symbol",
      "outputs": [
        {
          "internalType": "string",
          "name": "",
          "type": "string"
        }
      ],
      "stateMutability": "view",
      "type": "function"
    },
    {
      "inputs": [
        {
          "internalType": "uint256",
          "name": "tokenId",
          "type": "uint256"
        }
      ],
      "name": "tokenURI",
      "outputs": [
        {
          "internalType": "string",
          "name": "",
          "type": "string"
        }
      ],
      "stateMutability": "view",
      "type": "function"
    },
    {
      "inputs": [
        {
          "internalType": "uint256",
          "name": "",
          "type": "uint256"
        }
      ],
      "name": "totalUsage",
      "outputs": [
        {
          "internalType": "uint256",
          "name": "",
          "type": "uint256"
        }
      ],
      "stateMutability": "view",
      "type": "function"
    },
    {
      "inputs": [
        {
          "internalType": "address",
          "name": "from",
          "type": "address"
        },
        {
          "internalType": "address",
          "name": "to",
          "type": "address"
        },
        {
          "internalType": "uint256",
          "name": "tokenId",
          "type": "uint256"
        }
      ],
      "name": "transferFrom",
      "outputs": [],
      "stateMutability": "nonpayable",
      "type": "function"
    },
    {
      "inputs": [
        {
          "internalType": "address",
          "name": "newOwner",
          "type": "address"
        }
      ],
      "name": "transferOwnership",
      "outputs": [],
      "stateMutability": "nonpayable",
      "type": "function"
    },
    {
      "inputs": [
        {
          "internalType": "uint256",
          "name": "_newFee",
          "type": "uint256"
        }
      ],
      "name": "updateCreationFee",
      "outputs": [],
      "stateMutability": "nonpayable",
      "type": "function"
    },
    {
      "inputs": [
        {
          "internalType": "address",
          "name": "_newRecipient",
          "type": "address"
        }
      ],
      "name": "updateFeeRecipient",
      "outputs": [],
      "stateMutability": "nonpayable",
      "type": "function"
    }
  ],
  "bytecode": "0x608060405260016008556611c37937e080006009553480156200002157600080fd5b5060405162002f6f38038062002f6f833981016040819052620000449162000170565b336040518060400160405280601481526020017f4167656e745820456e68616e63656420494e46540000000000000000000000008152506040518060400160405280600681526020016510515253919560d21b8152508160009081620000ab919062000249565b506001620000ba828262000249565b5050506001600160a01b038116620000ec57604051631e4fbdf760e01b81526000600482015260240160405180910390fd5b620000f7816200011e565b50600a80546001600160a01b0319166001600160a01b039290921691909117905562000315565b600780546001600160a01b038381166001600160a01b0319831681179093556040519116919082907f8be0079c531659141344cd1fd0a4f28419497f9722a3daafe3b4186f6b6457e090600090a35050565b6000602082840312156200018357600080fd5b81516001600160a01b03811681146200019b57600080fd5b9392505050565b634e487b7160e01b600052604160045260246000fd5b600181811c90821680620001cd57607f821691505b602082108103620001ee57634e487b7160e01b600052602260045260246000fd5b50919050565b601f82111562000244576000816000526020600020601f850160051c810160208610156200021f5750805b601f850160051c820191505b8181101562000240578281556001016200022b565b5050505b505050565b81516001600160401b03811115620002655762000265620001a2565b6200027d81620002768454620001b8565b84620001f4565b602080601f831160018114620002b557600084156200029c5750858301515b600019600386901b1c1916600185901b17855562000240565b600085815260208120601f198616915b82811015620002e657888601518255948401946001909101908401620002c5565b5085821015620003055787850151600019600388901b60f8161c191681555b5050505050600190811b01905550565b612c4a80620003256000396000f3fe6080604052600436106101e35760003560e01c80637563fe9a11610102578063d85d3d2711610095578063e81baaaf11610064578063e81baaaf146105a7578063e985e9c5146105d4578063f160d369146105f4578063f2fde38b1461061457600080fd5b8063d85d3d271461053c578063db2e21bc1461054f578063dce0b4e414610564578063e7b6b8ad1461057a57600080fd5b8063a22cb465116100d1578063a22cb465146104bc578063b88d4fde146104dc578063c87b56dd146104fc578063d83ec6661461051c57600080fd5b80637563fe9a146104415780638da5cb5b1461045457806395d89b41146104725780639a92db911461048757600080fd5b806342842e0e1161017a5780636fa23795116101495780636fa23795146103cc57806370a08231146103ec578063715018a61461040c5780637340b1541461042157600080fd5b806342842e0e1461033f5780634406c9e61461035f578063469048401461038c5780636352211e146103ac57600080fd5b80631b07fe47116101b65780631b07fe47146102995780631bc51e7d146102df57806323b872dd146102ff578063320e27951461031f57600080fd5b806301ffc9a7146101e857806306fdde031461021d578063081812fc1461023f578063095ea7b314610277575b600080fd5b3480156101f457600080fd5b506102086102033660046122b3565b610634565b60405190151581526020015b60405180910390f35b34801561022957600080fd5b50610232610645565b6040516102149190612320565b34801561024b57600080fd5b5061025f61025a366004612333565b6106d7565b6040516001600160a01b039091168152602001610214565b34801561028357600080fd5b50610297610292366004612368565b610700565b005b3480156102a557600080fd5b506102d16102b4366004612392565b600d60209081526000928352604080842090915290825290205481565b604051908152602001610214565b3480156102eb57600080fd5b506102976102fa3660046123ce565b61070f565b34801561030b57600080fd5b5061029761031a3660046123f1565b6107f2565b34801561032b57600080fd5b5061029761033a366004612333565b61087d565b34801561034b57600080fd5b5061029761035a3660046123f1565b6109bd565b34801561036b57600080fd5b5061037f61037a366004612333565b6109dd565b604051610214919061242d565b34801561039857600080fd5b50600a5461025f906001600160a01b031681565b3480156103b857600080fd5b5061025f6103c7366004612333565b610af7565b3480156103d857600080fd5b506102976103e7366004612333565b610b02565b3480156103f857600080fd5b506102d1610407366004612491565b610b46565b34801561041857600080fd5b50610297610b8e565b34801561042d57600080fd5b506102d161043c366004612368565b610ba2565b6102d161044f3660046124f5565b610bd3565b34801561046057600080fd5b506007546001600160a01b031661025f565b34801561047e57600080fd5b506102326110c1565b34801561049357600080fd5b506104a76104a2366004612333565b6110d0565b604051610214999897969594939291906125c0565b3480156104c857600080fd5b506102976104d736600461265a565b6113d0565b3480156104e857600080fd5b506102976104f7366004612723565b6113db565b34801561050857600080fd5b50610232610517366004612333565b6113f3565b34801561052857600080fd5b506102d1610537366004612392565b6113fe565b6102d161054a36600461279f565b61147e565b34801561055b57600080fd5b5061029761161d565b34801561057057600080fd5b506102d160095481565b34801561058657600080fd5b506102d1610595366004612333565b600e6020526000908152604090205481565b3480156105b357600080fd5b506105c76105c2366004612491565b6116ce565b60405161021491906127e1565b3480156105e057600080fd5b506102086105ef366004612825565b61173a565b34801561060057600080fd5b5061029761060f366004612491565b611768565b34801561062057600080fd5b5061029761062f366004612491565b611803565b600061063f8261183e565b92915050565b6060600080546106549061284f565b80601f01602080910402602001604051908101604052809291908181526020018280546106809061284f565b80156106cd5780601f106106a2576101008083540402835291602001916106cd565b820191906000526020600020905b8154815290600101906020018083116106b057829003601f168201915b5050505050905090565b60006106e282611863565b506000828152600460205260409020546001600160a01b031661063f565b61070b82823361189c565b5050565b6000828152600260205260409020546001600160a01b031661074c5760405162461bcd60e51b815260040161074390612889565b60405180910390fd5b3361075683610af7565b6001600160a01b0316146107985760405162461bcd60e51b81526020600482015260096024820152682727aa2fa7aba722a960b91b6044820152606401610743565b6000828152600b6020908152604091829020600601805460ff1916841515908117909155915191825283917f5b7fa91ee392647b777096db0d386dc7cb7a3bfbc86ae6a10e0500de3a5ad02f910160405180910390a25050565b6001600160a01b03821661081c57604051633250574960e11b815260006004820152602401610743565b60006108298383336118a9565b9050836001600160a01b0316816001600160a01b031614610877576040516364283d7b60e01b81526001600160a01b0380861660048301526024820184905282166044820152606401610743565b50505050565b6000818152600260205260409020546001600160a01b03166108b15760405162461bcd60e51b815260040161074390612889565b6000818152600b602052604090206006015460ff166109055760405162461bcd60e51b815260206004820152601060248201526f4147454e545f4e4f545f41435449564560801b6044820152606401610743565b6000818152600d60209081526040808320338452909152812080549161092a836128b4565b90915550506000818152600e60205260408120805491610949836128b4565b90915550506000818152600b6020526040812060050180549161096b836128b4565b90915550506000818152600b6020908152604091829020600501549151918252339183917f6d78589f324fefee4a0445a95d0fa6b8df8211e6f679d4b4b04d98d2d9f0ab7c910160405180910390a350565b6109d8838383604051806020016040528060008152506113db565b505050565b6000818152600260205260409020546060906001600160a01b0316610a145760405162461bcd60e51b815260040161074390612889565b6000828152600b6020908152604080832060090180548251818502810185019093528083529193909284015b82821015610aec578382906000526020600020018054610a5f9061284f565b80601f0160208091040260200160405190810160405280929190818152602001828054610a8b9061284f565b8015610ad85780601f10610aad57610100808354040283529160200191610ad8565b820191906000526020600020905b815481529060010190602001808311610abb57829003601f168201915b505050505081526020019060010190610a40565b505050509050919050565b600061063f82611863565b610b0a6119a2565b60098190556040518181527f88a973fd5506071e0cf878b30898776c47d5250a7ee1e6ee0b36df3b03c7c16a906020015b60405180910390a150565b60006001600160a01b038216610b72576040516322718ad960e21b815260006004820152602401610743565b506001600160a01b031660009081526003602052604090205490565b610b966119a2565b610ba060006119cf565b565b600c6020528160005260406000208181548110610bbe57600080fd5b90600052602060002001600091509150505481565b6000600954341015610c235760405162461bcd60e51b8152602060048201526019602482015278494e53554646494349454e545f4352454154494f4e5f46454560381b6044820152606401610743565b6000610c2f85806128db565b905011610c6e5760405162461bcd60e51b815260206004820152600d60248201526c1390535157d491545552549151609a1b6044820152606401610743565b6000610c7d60808601866128db565b905011610cc45760405162461bcd60e51b815260206004820152601560248201527414d513d49051d157d21054d217d491545552549151605a1b6044820152606401610743565b60088054906000610cd4836128b4565b919050559050610ce43382611a21565b610d248187878080601f016020809104026020016040519081016040528093929190818152602001838380828437600092019190915250611a3b92505050565b60408051610140810190915280610d3b86806128db565b8080601f016020809104026020016040519081016040528093929190818152602001838380828437600092019190915250505090825250602090810190610d84908701876128db565b8080601f016020809104026020016040519081016040528093929190818152602001838380828437600092019190915250505090825250602001610dcb60408701876128db565b8080601f016020809104026020016040519081016040528093929190818152602001838380828437600092018290525093855250503360208401525042604083015260608201526001608082015260a001856003602002810190610e2f91906128db565b8080601f016020809104026020016040519081016040528093929190818152602001838380828437600092019190915250505090825250602001610e7660808701876128db565b8080601f016020809104026020016040519081016040528093929190818152602001838380828437600092019190915250505090825250602001610eba8486612922565b90526000828152600b6020526040902081518190610ed89082612a04565b5060208201516001820190610eed9082612a04565b5060408201516002820190610f029082612a04565b5060608201516003820180546001600160a01b0319166001600160a01b039092169190911790556080820151600482015560a0820151600582015560c082015160068201805460ff191691151591909117905560e08201516007820190610f699082612a04565b506101008201516008820190610f7f9082612a04565b506101208201518051610f9c9160098401916020909101906121e0565b5050336000908152600c602090815260408220805460018101825590835291200182905550341561106257600a546040516000916001600160a01b03169034908381818185875af1925050503d8060008114611014576040519150601f19603f3d011682016040523d82523d6000602084013e611019565b606091505b50509050806110605760405162461bcd60e51b815260206004820152601360248201527211915157d514905394d1915497d19052531151606a1b6044820152606401610743565b505b33817f93998ca5de37247c6d90e27d07a8fad3b63ae0d5f2d13e271b985934104f9da061108f87806128db565b8a8a61109e60808c018c6128db565b6040516110b096959493929190612aed565b60405180910390a395945050505050565b6060600180546106549061284f565b600b602052600090815260409020805481906110eb9061284f565b80601f01602080910402602001604051908101604052809291908181526020018280546111179061284f565b80156111645780601f1061113957610100808354040283529160200191611164565b820191906000526020600020905b81548152906001019060200180831161114757829003601f168201915b5050505050908060010180546111799061284f565b80601f01602080910402602001604051908101604052809291908181526020018280546111a59061284f565b80156111f25780601f106111c7576101008083540402835291602001916111f2565b820191906000526020600020905b8154815290600101906020018083116111d557829003601f168201915b5050505050908060020180546112079061284f565b80601f01602080910402602001604051908101604052809291908181526020018280546112339061284f565b80156112805780601f1061125557610100808354040283529160200191611280565b820191906000526020600020905b81548152906001019060200180831161126357829003601f168201915b505050600384015460048501546005860154600687015460078801805497986001600160a01b039095169793965091945060ff1692916112bf9061284f565b80601f01602080910402602001604051908101604052809291908181526020018280546112eb9061284f565b80156113385780601f1061130d57610100808354040283529160200191611338565b820191906000526020600020905b81548152906001019060200180831161131b57829003601f168201915b50505050509080600801805461134d9061284f565b80601f01602080910402602001604051908101604052809291908181526020018280546113799061284f565b80156113c65780601f1061139b576101008083540402835291602001916113c6565b820191906000526020600020905b8154815290600101906020018083116113a957829003601f168201915b5050505050905089565b61070b338383611a8b565b6113e68484846107f2565b6108773385858585611b2a565b606061063f82611c55565b6000828152600260205260408120546001600160a01b03166114325760405162461bcd60e51b815260040161074390612889565b6001600160a01b03821661145557506000828152600e602052604090205461063f565b506000918252600d602090815260408084206001600160a01b0393909316845291905290205490565b60006009543410156114ce5760405162461bcd60e51b8152602060048201526019602482015278494e53554646494349454e545f4352454154494f4e5f46454560381b6044820152606401610743565b600880549060006114de836128b4565b9190505590506114ee3382611a21565b61152e8184848080601f016020809104026020016040519081016040528093929190818152602001838380828437600092019190915250611a3b92505050565b34156115cf57600a546040516000916001600160a01b03169034908381818185875af1925050503d8060008114611581576040519150601f19603f3d011682016040523d82523d6000602084013e611586565b606091505b50509050806115cd5760405162461bcd60e51b815260206004820152601360248201527211915157d514905394d1915497d19052531151606a1b6044820152606401610743565b505b336001600160a01b0316817f93998ca5de37247c6d90e27d07a8fad3b63ae0d5f2d13e271b985934104f9da08585878760405161160f9493929190612b36565b60405180910390a392915050565b6116256119a2565b60006116396007546001600160a01b031690565b6001600160a01b03164760405160006040518083038185875af1925050503d8060008114611683576040519150601f19603f3d011682016040523d82523d6000602084013e611688565b606091505b50509050806116cb5760405162461bcd60e51b815260206004820152600f60248201526e15d2551211149055d7d19052531151608a1b6044820152606401610743565b50565b6001600160a01b0381166000908152600c602090815260409182902080548351818402810184019094528084526060939283018282801561172e57602002820191906000526020600020905b81548152602001906001019080831161171a575b50505050509050919050565b6001600160a01b03918216600090815260056020908152604080832093909416825291909152205460ff1690565b6117706119a2565b6001600160a01b0381166117b55760405162461bcd60e51b815260206004820152600c60248201526b5a45524f5f4144445245535360a01b6044820152606401610743565b600a80546001600160a01b0319166001600160a01b0383169081179091556040519081527f7a7b5a0a132f9e0581eb8527f66eae9ee89c2a3e79d4ac7e41a1f1f4d48a7fc290602001610b3b565b61180b6119a2565b6001600160a01b03811661183557604051631e4fbdf760e01b815260006004820152602401610743565b6116cb816119cf565b60006001600160e01b03198216632483248360e11b148061063f575061063f82611d66565b6000818152600260205260408120546001600160a01b03168061063f57604051637e27328960e01b815260048101849052602401610743565b6109d88383836001611db6565b6000828152600260205260408120546001600160a01b03908116908316156118d6576118d6818486611ebc565b6001600160a01b03811615611914576118f3600085600080611db6565b6001600160a01b038116600090815260036020526040902080546000190190555b6001600160a01b03851615611943576001600160a01b0385166000908152600360205260409020805460010190555b60008481526002602052604080822080546001600160a01b0319166001600160a01b0389811691821790925591518793918516917fddf252ad1be2c89b69c2b068fc378daa952ba7f163c4a11628f55a4df523b3ef91a4949350505050565b6007546001600160a01b03163314610ba05760405163118cdaa760e01b8152336004820152602401610743565b600780546001600160a01b038381166001600160a01b0319831681179093556040519116919082907f8be0079c531659141344cd1fd0a4f28419497f9722a3daafe3b4186f6b6457e090600090a35050565b61070b828260405180602001604052806000815250611f20565b6000828152600660205260409020611a538282612a04565b506040518281527ff8e1a15aba9398e019f0b49df1a4fde98ee17ae345cb5f6b5e2c27f5033e8ce79060200160405180910390a15050565b6001600160a01b038216611abd57604051630b61174360e31b81526001600160a01b0383166004820152602401610743565b6001600160a01b03838116600081815260056020908152604080832094871680845294825291829020805460ff191686151590811790915591519182527f17307eab39ab6107e8899845ad3d59bd9653f200f220920489ca2b5937696c31910160405180910390a3505050565b6001600160a01b0383163b15611c4e57604051630a85bd0160e11b81526001600160a01b0384169063150b7a0290611b6c908890889087908790600401612b8b565b6020604051808303816000875af1925050508015611ba7575060408051601f3d908101601f19168201909252611ba491810190612bc8565b60015b611c10573d808015611bd5576040519150601f19603f3d011682016040523d82523d6000602084013e611bda565b606091505b508051600003611c0857604051633250574960e11b81526001600160a01b0385166004820152602401610743565b805160208201fd5b6001600160e01b03198116630a85bd0160e11b14611c4c57604051633250574960e11b81526001600160a01b0385166004820152602401610743565b505b5050505050565b6060611c6082611863565b5060008281526006602052604081208054611c7a9061284f565b80601f0160208091040260200160405190810160405280929190818152602001828054611ca69061284f565b8015611cf35780601f10611cc857610100808354040283529160200191611cf3565b820191906000526020600020905b815481529060010190602001808311611cd657829003601f168201915b505050505090506000611d1160408051602081019091526000815290565b90508051600003611d23575092915050565b815115611d55578082604051602001611d3d929190612be5565b60405160208183030381529060405292505050919050565b611d5e84611f38565b949350505050565b60006001600160e01b031982166380ac58cd60e01b1480611d9757506001600160e01b03198216635b5e139f60e01b145b8061063f57506301ffc9a760e01b6001600160e01b031983161461063f565b8080611dca57506001600160a01b03821615155b15611e8c576000611dda84611863565b90506001600160a01b03831615801590611e065750826001600160a01b0316816001600160a01b031614155b8015611e195750611e17818461173a565b155b15611e425760405163a9fbf51f60e01b81526001600160a01b0384166004820152602401610743565b8115611e8a5783856001600160a01b0316826001600160a01b03167f8c5be1e5ebec7d5bd14f71427d1e84f3dd0314c0f7b2291e5b200ac8c7c3b92560405160405180910390a45b505b5050600090815260046020526040902080546001600160a01b0319166001600160a01b0392909216919091179055565b611ec7838383611fad565b6109d8576001600160a01b038316611ef557604051637e27328960e01b815260048101829052602401610743565b60405163177e802f60e01b81526001600160a01b038316600482015260248101829052604401610743565b611f2a8383612010565b6109d8336000858585611b2a565b6060611f4382611863565b506000611f5b60408051602081019091526000815290565b90506000815111611f7b5760405180602001604052806000815250611fa6565b80611f8584612075565b604051602001611f96929190612be5565b6040516020818303038152906040525b9392505050565b60006001600160a01b03831615801590611d5e5750826001600160a01b0316846001600160a01b03161480611fe75750611fe7848461173a565b80611d5e5750506000908152600460205260409020546001600160a01b03908116911614919050565b6001600160a01b03821661203a57604051633250574960e11b815260006004820152602401610743565b6000612048838360006118a9565b90506001600160a01b038116156109d8576040516339e3563760e11b815260006004820152602401610743565b6060600061208283612108565b600101905060008167ffffffffffffffff8111156120a2576120a2612684565b6040519080825280601f01601f1916602001820160405280156120cc576020820181803683370190505b5090508181016020015b600019016f181899199a1a9b1b9c1cb0b131b232b360811b600a86061a8153600a85049450846120d657509392505050565b60008072184f03e93ff9f4daa797ed6e38ed64bf6a1f0160401b83106121475772184f03e93ff9f4daa797ed6e38ed64bf6a1f0160401b830492506040015b6d04ee2d6d415b85acef81000000008310612173576d04ee2d6d415b85acef8100000000830492506020015b662386f26fc10000831061219157662386f26fc10000830492506010015b6305f5e10083106121a9576305f5e100830492506008015b61271083106121bd57612710830492506004015b606483106121cf576064830492506002015b600a831061063f5760010192915050565b828054828255906000526020600020908101928215612226579160200282015b8281111561222657825182906122169082612a04565b5091602001919060010190612200565b50612232929150612236565b5090565b8082111561223257600061224a8282612253565b50600101612236565b50805461225f9061284f565b6000825580601f1061226f575050565b601f0160209004906000526020600020908101906116cb91905b808211156122325760008155600101612289565b6001600160e01b0319811681146116cb57600080fd5b6000602082840312156122c557600080fd5b8135611fa68161229d565b60005b838110156122eb5781810151838201526020016122d3565b50506000910152565b6000815180845261230c8160208601602086016122d0565b601f01601f19169290920160200192915050565b602081526000611fa660208301846122f4565b60006020828403121561234557600080fd5b5035919050565b80356001600160a01b038116811461236357600080fd5b919050565b6000806040838503121561237b57600080fd5b6123848361234c565b946020939093013593505050565b600080604083850312156123a557600080fd5b823591506123b56020840161234c565b90509250929050565b8035801515811461236357600080fd5b600080604083850312156123e157600080fd5b823591506123b5602084016123be565b60008060006060848603121561240657600080fd5b61240f8461234c565b925061241d6020850161234c565b9150604084013590509250925092565b600060208083016020845280855180835260408601915060408160051b87010192506020870160005b8281101561248457603f198886030184526124728583516122f4565b94509285019290850190600101612456565b5092979650505050505050565b6000602082840312156124a357600080fd5b611fa68261234c565b60008083601f8401126124be57600080fd5b50813567ffffffffffffffff8111156124d657600080fd5b6020830191508360208285010111156124ee57600080fd5b9250929050565b60008060008060006060868803121561250d57600080fd5b853567ffffffffffffffff8082111561252557600080fd5b61253189838a016124ac565b9097509550602088013591508082111561254a57600080fd5b81880191508860a08301111561255f57600080fd5b9093506040870135908082111561257557600080fd5b818801915088601f83011261258957600080fd5b81358181111561259857600080fd5b8960208260051b85010111156125ad57600080fd5b9699959850939650602001949392505050565b60006101208083526125d48184018d6122f4565b905082810360208401526125e8818c6122f4565b905082810360408401526125fc818b6122f4565b6001600160a01b038a1660608501526080840189905260a0840188905286151560c085015283810360e0850152905061263581866122f4565b905082810361010084015261264a81856122f4565b9c9b505050505050505050505050565b6000806040838503121561266d57600080fd5b6126768361234c565b91506123b5602084016123be565b634e487b7160e01b600052604160045260246000fd5b604051601f8201601f1916810167ffffffffffffffff811182821017156126c3576126c3612684565b604052919050565b600067ffffffffffffffff8311156126e5576126e5612684565b6126f8601f8401601f191660200161269a565b905082815283838301111561270c57600080fd5b828260208301376000602084830101529392505050565b6000806000806080858703121561273957600080fd5b6127428561234c565b93506127506020860161234c565b925060408501359150606085013567ffffffffffffffff81111561277357600080fd5b8501601f8101871361278457600080fd5b612793878235602084016126cb565b91505092959194509250565b600080602083850312156127b257600080fd5b823567ffffffffffffffff8111156127c957600080fd5b6127d5858286016124ac565b90969095509350505050565b6020808252825182820181905260009190848201906040850190845b81811015612819578351835292840192918401916001016127fd565b50909695505050505050565b6000806040838503121561283857600080fd5b6128418361234c565b91506123b56020840161234c565b600181811c9082168061286357607f821691505b60208210810361288357634e487b7160e01b600052602260045260246000fd5b50919050565b6020808252601190820152702727a722ac24a9aa22a72a2faa27a5a2a760791b604082015260600190565b6000600182016128d457634e487b7160e01b600052601160045260246000fd5b5060010190565b6000808335601e198436030181126128f257600080fd5b83018035915067ffffffffffffffff82111561290d57600080fd5b6020019150368190038213156124ee57600080fd5b600067ffffffffffffffff8084111561293d5761293d612684565b8360051b602061294f6020830161269a565b8681529185019160208101903684111561296857600080fd5b865b848110156129b0578035868111156129825760008081fd5b880136601f8201126129945760008081fd5b6129a23682358784016126cb565b84525091830191830161296a565b50979650505050505050565b601f8211156109d8576000816000526020600020601f850160051c810160208610156129e55750805b601f850160051c820191505b81811015611c4c578281556001016129f1565b815167ffffffffffffffff811115612a1e57612a1e612684565b612a3281612a2c845461284f565b846129bc565b602080601f831160018114612a675760008415612a4f5750858301515b600019600386901b1c1916600185901b178555611c4c565b600085815260208120601f198616915b82811015612a9657888601518255948401946001909101908401612a77565b5085821015612ab45787850151600019600388901b60f8161c191681555b5050505050600190811b01905550565b81835281816020850137506000828201602090810191909152601f909101601f19169091010190565b606081526000612b0160608301888a612ac4565b8281036020840152612b14818789612ac4565b90508281036040840152612b29818587612ac4565b9998505050505050505050565b60608152600c60608201526b14da5b5c1b19481059d95b9d60a21b608082015260a060208201526000612b6d60a083018688612ac4565b8281036040840152612b80818587612ac4565b979650505050505050565b6001600160a01b0385811682528416602082015260408101839052608060608201819052600090612bbe908301846122f4565b9695505050505050565b600060208284031215612bda57600080fd5b8151611fa68161229d565b60008351612bf78184602088016122d0565b835190830190612c0b8183602088016122d0565b0194935050505056fea26469706673582212205fafa1125519a95863a3464ad0853632e7696cb4ddfc5f8f8588093fe67fdfb864736f6c63430008180033",
  "linkReferences": {},
  "deployedLinkReferences": {}
}