{
  "_format": "hh-sol-artifact-1",
  "contractName": "AgentRegistry",
  "sourceName": "contracts/AgentRegistry.sol",
  "abi": [
    {
      "anonymous": false,
      "inputs": [
        {
          "indexed": true,
          "internalType": "uint256",
          "name": "agentId",
          "type": "uint256"
        },
        {
          "indexed": true,
          "internalType": "address",
          "name": "owner",
          "type": "address"
        },
        {
          "indexed": false,
          "internalType": "string",
          "name": "metadataURI",
          "type": "string"
        }
      ],
      "name": "AgentCreated",
      "type": "event"
    },
    {
      "anonymous": false,
      "inputs": [
        {
          "indexed": true,
          "internalType": "uint256",
          "name": "agentId",
          "type": "uint256"
        },
        {
          "indexed": true,
          "internalType": "address",
          "name": "from",
          "type": "address"
        },
        {
          "indexed": true,
          "internalType": "address",
          "name": "to",
          "type": "address"
        }
      ],
      "name": "AgentTransferred",
      "type": "event"
    },
    {
      "inputs": [
        {
          "internalType": "string",
          "name": "metadataURI",
          "type": "string"
        }
      ],
      "name": "create",
      "outputs": [
        {
          "internalType": "uint256",
          "name": "agentId",
          "type": "uint256"
        }
      ],
      "stateMutability": "nonpayable",
      "type": "function"
    },
    {
      "inputs": [
        {
          "internalType": "uint256",
          "name": "agentId",
          "type": "uint256"
        }
      ],
      "name": "metadataOf",
      "outputs": [
        {
          "internalType": "string",
          "name": "",
          "type": "string"
        }
      ],
      "stateMutability": "view",
      "type": "function"
    },
    {
      "inputs": [
        {
          "internalType": "uint256",
          "name": "agentId",
          "type": "uint256"
        }
      ],
      "name": "ownerOf",
      "outputs": [
        {
          "internalType": "address",
          "name": "",
          "type": "address"
        }
      ],
      "stateMutability": "view",
      "type": "function"
    },
    {
      "inputs": [],
      "name": "totalAgents",
      "outputs": [
        {
          "internalType": "uint256",
          "name": "",
          "type": "uint256"
        }
      ],
      "stateMutability": "view",
      "type": "function"
    },
    {
      "inputs": [
        {
          "internalType": "uint256",
          "name": "agentId",
          "type": "uint256"
        },
        {
          "internalType": "address",
          "name": "to",
          "type": "address"
        }
      ],
      "name": "transfer",
      "outputs": [],
      "stateMutability": "nonpayable",
      "type": "function"
    }
  ],
  "bytecode": "0x608060405234801561001057600080fd5b506106a0806100206000396000f3fe608060405234801561001057600080fd5b50600436106100575760003560e01c80630ef7cc8e1461005c5780636352211e14610085578063b6a46b3b146100c6578063b7760c8f146100e7578063c5053712146100fc575b600080fd5b61006f61006a36600461039d565b610105565b60405161007c91906103b6565b60405180910390f35b6100ae61009336600461039d565b6000908152600160205260409020546001600160a01b031690565b6040516001600160a01b03909116815260200161007c565b6100d96100d4366004610405565b6101ad565b60405190815260200161007c565b6100fa6100f5366004610477565b6102a4565b005b6100d960005481565b6060600160008381526020019081526020016000206001018054610128906104b3565b80601f0160208091040260200160405190810160405280929190818152602001828054610154906104b3565b80156101a15780601f10610176576101008083540402835291602001916101a1565b820191906000526020600020905b81548152906001019060200180831161018457829003601f168201915b50505050509050919050565b600080600081546101bd906104ed565b91905081905590506040518060400160405280336001600160a01b0316815260200184848080601f0160208091040260200160405190810160405280939291908181526020018383808284376000920182905250939094525050838152600160208181526040909220845181546001600160a01b0319166001600160a01b0390911617815591840151919250820190610256908261057b565b50905050336001600160a01b0316817fa5b2eed1bb028a308c4a4b0ebe9c32deeccb838ec53fcf79051a16ee8fc6ac65858560405161029692919061063b565b60405180910390a392915050565b6000828152600160205260409020546001600160a01b03163381146102fc5760405162461bcd60e51b81526020600482015260096024820152682727aa2fa7aba722a960b91b60448201526064015b60405180910390fd5b6001600160a01b03821661033f5760405162461bcd60e51b815260206004820152600a602482015269494e56414c49445f544f60b01b60448201526064016102f3565b60008381526001602052604080822080546001600160a01b0319166001600160a01b03868116918217909255915191929084169186917fd6ba5fac6fb963adac1793479c359f94fa1284132187bb1bd9302880a18a8fc391a4505050565b6000602082840312156103af57600080fd5b5035919050565b60006020808352835180602085015260005b818110156103e4578581018301518582016040015282016103c8565b506000604082860101526040601f19601f8301168501019250505092915050565b6000806020838503121561041857600080fd5b823567ffffffffffffffff8082111561043057600080fd5b818501915085601f83011261044457600080fd5b81358181111561045357600080fd5b86602082850101111561046557600080fd5b60209290920196919550909350505050565b6000806040838503121561048a57600080fd5b8235915060208301356001600160a01b03811681146104a857600080fd5b809150509250929050565b600181811c908216806104c757607f821691505b6020821081036104e757634e487b7160e01b600052602260045260246000fd5b50919050565b60006001820161050d57634e487b7160e01b600052601160045260246000fd5b5060010190565b634e487b7160e01b600052604160045260246000fd5b601f821115610576576000816000526020600020601f850160051c810160208610156105535750805b601f850160051c820191505b818110156105725782815560010161055f565b5050505b505050565b815167ffffffffffffffff81111561059557610595610514565b6105a9816105a384546104b3565b8461052a565b602080601f8311600181146105de57600084156105c65750858301515b600019600386901b1c1916600185901b178555610572565b600085815260208120601f198616915b8281101561060d578886015182559484019460019091019084016105ee565b508582101561062b5787850151600019600388901b60f8161c191681555b5050505050600190811b01905550565b60208152816020820152818360408301376000818301604090810191909152601f909201601f1916010191905056fea264697066735822122013a584e2d0bc2c6826e975797220d1c4f118c436ea6275d2c7cbc4a8c6cf8ea364736f6c63430008180033",
  "linkReferences": {},
  "deployedLinkReferences": {}
}